{
    "contractName": "LensCollectVotingStrategyImplementation",
    "abi": [
        {
            "inputs": [],
            "name": "Initialized",
            "type": "error"
        },
        {
            "inputs": [],
            "name": "NotRoundContract",
            "type": "error"
        },
        {
            "anonymous": false,
            "inputs": [
                {
                    "indexed": false,
                    "internalType": "uint8",
                    "name": "version",
                    "type": "uint8"
                }
            ],
            "name": "Initialized",
            "type": "event"
        },
        {
            "inputs": [],
            "name": "VERSION",
            "outputs": [
                {
                    "internalType": "string",
                    "name": "",
                    "type": "string"
                }
            ],
            "stateMutability": "view",
            "type": "function"
        },
        {
            "inputs": [],
            "name": "collectModule",
            "outputs": [
                {
                    "internalType": "address",
                    "name": "",
                    "type": "address"
                }
            ],
            "stateMutability": "view",
            "type": "function"
        },
        {
            "inputs": [],
            "name": "init",
            "outputs": [],
            "stateMutability": "nonpayable",
            "type": "function"
        },
        {
            "inputs": [
                {
                    "internalType": "address",
                    "name": "_collectModule",
                    "type": "address"
                }
            ],
            "name": "initialize",
            "outputs": [],
            "stateMutability": "nonpayable",
            "type": "function"
        },
        {
            "inputs": [],
            "name": "roundAddress",
            "outputs": [
                {
                    "internalType": "address",
                    "name": "",
                    "type": "address"
                }
            ],
            "stateMutability": "view",
            "type": "function"
        },
        {
            "inputs": [
                {
                    "internalType": "bytes[]",
                    "name": "encodedVotes",
                    "type": "bytes[]"
                },
                {
                    "internalType": "address",
                    "name": "voterAddress",
                    "type": "address"
                }
            ],
            "name": "vote",
            "outputs": [],
            "stateMutability": "payable",
            "type": "function"
        }
    ],
    "bytecode": "608060405234801561001057600080fd5b50610bd2806100206000396000f3fe6080604052600436106100555760003560e01c80630b67d9251461005a57806342fed70f14610097578063c4d66de8146100b7578063e1c7392a146100d9578063fc6d4e39146100ee578063ffa1ad7414610101575b600080fd5b34801561006657600080fd5b5060345461007a906001600160a01b031681565b6040516001600160a01b0390911681526020015b60405180910390f35b3480156100a357600080fd5b5060335461007a906001600160a01b031681565b3480156100c357600080fd5b506100d76100d236600461090a565b61013f565b005b3480156100e557600080fd5b506100d7610293565b6100d76100fc36600461092e565b6102d1565b34801561010d57600080fd5b50610132604051806040016040528060058152602001640302e322e360dc1b81525081565b60405161008e91906109e0565b600054610100900460ff161580801561015f5750600054600160ff909116105b806101795750303b158015610179575060005460ff166001145b6101e15760405162461bcd60e51b815260206004820152602e60248201527f496e697469616c697a61626c653a20636f6e747261637420697320616c72656160448201526d191e481a5b9a5d1a585b1a5e995960921b60648201526084015b60405180910390fd5b6000805460ff191660011790558015610204576000805461ff0019166101001790555b6033546001600160a01b03161561022e576040516302ed543d60e51b815260040160405180910390fd5b603380546001600160a01b0319166001600160a01b038416179055801561028f576000805461ff0019169055604051600181527f7f26b83ff96e1f2b6a682f133852f6798a09c465da95921460cefb38474024989060200160405180910390a15b5050565b6034546001600160a01b0316156102bd576040516302ed543d60e51b815260040160405180910390fd5b603480546001600160a01b03191633179055565b6102d9610392565b6034546001600160a01b031633146103045760405163ba48ca7160e01b815260040160405180910390fd5b60005b82811015610383576103718285858481811061032557610325610a13565b90506020028101906103379190610a29565b8080601f0160208091040260200160405190810160405280939291908181526020018383808284376000920191909152506103ec92505050565b8061037b81610a77565b915050610307565b5061038d60018055565b505050565b600260015414156103e55760405162461bcd60e51b815260206004820152601f60248201527f5265656e7472616e637947756172643a207265656e7472616e742063616c6c0060448201526064016101d8565b6002600155565b6000806000806000806103ff8888610492565b603354959b509399509197509550935091506001600160a01b0389811691161461042f5761042f86868684610508565b604080516001600160a01b038881168252602082018890528681168284015260608201859052915133928692908516917e64caa73f1d59b69adbeb65654b0f0953597994e4241ee2460b560b8d65aaa29181900360800190a45050505050505050565b603354600090819081908190819081906001600160a01b03898116911614156104da57868060200190518101906104c99190610aa0565b9550955095509550955095506104fe565b879050868060200190518101906104f19190610b0a565b9399509197509550935091505b9295509295509295565b6001600160a01b038416610525576105208284610537565b610531565b61053184828486610650565b50505050565b804710156105875760405162461bcd60e51b815260206004820152601d60248201527f416464726573733a20696e73756666696369656e742062616c616e636500000060448201526064016101d8565b6000826001600160a01b03168260405160006040518083038185875af1925050503d80600081146105d4576040519150601f19603f3d011682016040523d82523d6000602084013e6105d9565b606091505b505090508061038d5760405162461bcd60e51b815260206004820152603a60248201527f416464726573733a20756e61626c6520746f2073656e642076616c75652c207260448201527f6563697069656e74206d6179206861766520726576657274656400000000000060648201526084016101d8565b604080516001600160a01b038581166024830152848116604483015260648083018590528351808403909101815260849092018352602080830180516001600160e01b03166323b872dd60e01b17905283518085019094528084527f5361666545524332303a206c6f772d6c6576656c2063616c6c206661696c656490840152610531928792916000916106e8918516908490610765565b80519091501561038d57808060200190518101906107069190610b5e565b61038d5760405162461bcd60e51b815260206004820152602a60248201527f5361666545524332303a204552433230206f7065726174696f6e20646964206e6044820152691bdd081cdd58d8d9595960b21b60648201526084016101d8565b6060610774848460008561077c565b949350505050565b6060824710156107dd5760405162461bcd60e51b815260206004820152602660248201527f416464726573733a20696e73756666696369656e742062616c616e636520666f6044820152651c8818d85b1b60d21b60648201526084016101d8565b600080866001600160a01b031685876040516107f99190610b80565b60006040518083038185875af1925050503d8060008114610836576040519150601f19603f3d011682016040523d82523d6000602084013e61083b565b606091505b509150915061084c87838387610857565b979650505050505050565b606083156108c35782516108bc576001600160a01b0385163b6108bc5760405162461bcd60e51b815260206004820152601d60248201527f416464726573733a2063616c6c20746f206e6f6e2d636f6e747261637400000060448201526064016101d8565b5081610774565b61077483838151156108d85781518083602001fd5b8060405162461bcd60e51b81526004016101d891906109e0565b6001600160a01b038116811461090757600080fd5b50565b60006020828403121561091c57600080fd5b8135610927816108f2565b9392505050565b60008060006040848603121561094357600080fd5b833567ffffffffffffffff8082111561095b57600080fd5b818601915086601f83011261096f57600080fd5b81358181111561097e57600080fd5b8760208260051b850101111561099357600080fd5b602092830195509350508401356109a9816108f2565b809150509250925092565b60005b838110156109cf5781810151838201526020016109b7565b838111156105315750506000910152565b60208152600082518060208401526109ff8160408501602087016109b4565b601f01601f19169190910160400192915050565b634e487b7160e01b600052603260045260246000fd5b6000808335601e19843603018112610a4057600080fd5b83018035915067ffffffffffffffff821115610a5b57600080fd5b602001915036819003821315610a7057600080fd5b9250929050565b6000600019821415610a9957634e487b7160e01b600052601160045260246000fd5b5060010190565b60008060008060008060c08789031215610ab957600080fd5b8651610ac4816108f2565b602088015160408901519197509550610adc816108f2565b80945050606087015192506080870151915060a0870151610afc816108f2565b809150509295509295509295565b600080600080600060a08688031215610b2257600080fd5b8551610b2d816108f2565b602087015160408801519196509450610b45816108f2565b6060870151608090970151959894975095949392505050565b600060208284031215610b7057600080fd5b8151801515811461092757600080fd5b60008251610b928184602087016109b4565b919091019291505056fea2646970667358221220ff43a11d0d36713b6a75666f1b76bc6bbab5169f92d2000adfda976f5303728f64736f6c634300080a0033",
    "sourcePath": "/workspace/grants-collect-module/src/votingStrategy/LensCollectVotingStrategyImplementation.sol",
    "compiler": {
        "name": "solc",
        "version": "0.8.10+commit.fc410830"
    },
    "functionHashes": {
        "VERSION()": "ffa1ad74",
        "collectModule()": "42fed70f",
        "init()": "e1c7392a",
        "initialize(address)": "c4d66de8",
        "roundAddress()": "0b67d925",
        "vote(bytes[],address)": "fc6d4e39"
    },
    "gasEstimates": {
        "creation": {
            "codeDepositCost": "605200",
            "executionCost": "638",
            "totalCost": "605838"
        },
        "external": {
            "VERSION()": "infinite",
            "collectModule()": "2326",
            "init()": "26561",
            "initialize(address)": "109520",
            "roundAddress()": "2304",
            "vote(bytes[],address)": "infinite"
        },
        "internal": {
            "_getContributionData(address,bytes memory)": "infinite",
            "_processContribution(address,bytes memory)": "infinite",
            "_transferAmount(address,uint256,address,address)": "infinite"
        }
    }
}