{
    "contractName": "GitcoinCollectModule",
    "abi": [
        {
            "inputs": [
                {
                    "internalType": "address",
                    "name": "hub",
                    "type": "address"
                }
            ],
            "stateMutability": "nonpayable",
            "type": "constructor"
        },
        {
            "inputs": [],
            "name": "FollowInvalid",
            "type": "error"
        },
        {
            "inputs": [],
            "name": "InitParamsInvalid",
            "type": "error"
        },
        {
            "inputs": [],
            "name": "InitParamsInvalid",
            "type": "error"
        },
        {
            "inputs": [],
            "name": "ModuleDataMismatch",
            "type": "error"
        },
        {
            "inputs": [],
            "name": "NotHub",
            "type": "error"
        },
        {
            "inputs": [],
            "name": "HUB",
            "outputs": [
                {
                    "internalType": "address",
                    "name": "",
                    "type": "address"
                }
            ],
            "stateMutability": "view",
            "type": "function"
        },
        {
            "inputs": [],
            "name": "ROUND_OPERATOR_ROLE",
            "outputs": [
                {
                    "internalType": "bytes32",
                    "name": "",
                    "type": "bytes32"
                }
            ],
            "stateMutability": "view",
            "type": "function"
        },
        {
            "inputs": [
                {
                    "internalType": "uint256",
                    "name": "",
                    "type": "uint256"
                },
                {
                    "internalType": "uint256",
                    "name": "",
                    "type": "uint256"
                },
                {
                    "internalType": "bytes",
                    "name": "data",
                    "type": "bytes"
                }
            ],
            "name": "calculateFee",
            "outputs": [
                {
                    "internalType": "uint256",
                    "name": "",
                    "type": "uint256"
                }
            ],
            "stateMutability": "view",
            "type": "function"
        },
        {
            "inputs": [
                {
                    "internalType": "uint256",
                    "name": "profileId",
                    "type": "uint256"
                },
                {
                    "internalType": "uint256",
                    "name": "pubId",
                    "type": "uint256"
                }
            ],
            "name": "getPublicationData",
            "outputs": [
                {
                    "components": [
                        {
                            "internalType": "address",
                            "name": "roundAddress",
                            "type": "address"
                        },
                        {
                            "internalType": "bytes32",
                            "name": "projectId",
                            "type": "bytes32"
                        },
                        {
                            "internalType": "uint256",
                            "name": "applicationIndex",
                            "type": "uint256"
                        },
                        {
                            "internalType": "address",
                            "name": "currency",
                            "type": "address"
                        },
                        {
                            "internalType": "uint96",
                            "name": "currentCollects",
                            "type": "uint96"
                        },
                        {
                            "internalType": "address",
                            "name": "recipient",
                            "type": "address"
                        },
                        {
                            "internalType": "uint16",
                            "name": "referralFee",
                            "type": "uint16"
                        },
                        {
                            "internalType": "bool",
                            "name": "followerOnly",
                            "type": "bool"
                        }
                    ],
                    "internalType": "struct DataTypes.ProfilePublicationData",
                    "name": "",
                    "type": "tuple"
                }
            ],
            "stateMutability": "view",
            "type": "function"
        },
        {
            "inputs": [
                {
                    "internalType": "uint256",
                    "name": "profileId",
                    "type": "uint256"
                },
                {
                    "internalType": "uint256",
                    "name": "pubId",
                    "type": "uint256"
                },
                {
                    "internalType": "bytes",
                    "name": "data",
                    "type": "bytes"
                }
            ],
            "name": "initializePublicationCollectModule",
            "outputs": [
                {
                    "internalType": "bytes",
                    "name": "",
                    "type": "bytes"
                }
            ],
            "stateMutability": "nonpayable",
            "type": "function"
        },
        {
            "inputs": [
                {
                    "internalType": "uint256",
                    "name": "referrerProfileId",
                    "type": "uint256"
                },
                {
                    "internalType": "address",
                    "name": "collector",
                    "type": "address"
                },
                {
                    "internalType": "uint256",
                    "name": "profileId",
                    "type": "uint256"
                },
                {
                    "internalType": "uint256",
                    "name": "pubId",
                    "type": "uint256"
                },
                {
                    "internalType": "bytes",
                    "name": "data",
                    "type": "bytes"
                }
            ],
            "name": "processCollect",
            "outputs": [],
            "stateMutability": "nonpayable",
            "type": "function"
        }
    ],
    "bytecode": "60a060405234801561001057600080fd5b5060405161154d38038061154d83398101604081905261002f916100a0565b806001600160a01b038116610057576040516348be0eb360e01b815260040160405180910390fd5b6001600160a01b03811660808190526040514281527ff1a1fa6b64aa95186f5a1285e76198d0da80d9c5a88062641d447f1d7c54e56c9060200160405180910390a250506100d0565b6000602082840312156100b257600080fd5b81516001600160a01b03811681146100c957600080fd5b9392505050565b6080516114386101156000396000818161016d0152818161024d01528181610588015281816107bd015281816109b001528181610ace0152610bdc01526114386000f3fe608060405234801561001057600080fd5b50600436106100625760003560e01c80633f50389214610067578063a4c52b8614610168578063bbce3594146101a7578063c233f951146101c8578063d97f3dcf146101e8578063e49c3dda1461020f575b600080fd5b610152610075366004610f36565b6040805161010081018252600080825260208201819052918101829052606081018290526080810182905260a0810182905260c0810182905260e0810191909152506000918252602082815260408084209284529181529181902081516101008101835281546001600160a01b03908116825260018301549482019490945260028201549281019290925260038101548084166060840152600160a01b908190046001600160601b0316608084015260049091015492831660a0830152820461ffff1660c0820152600160b01b90910460ff16151560e082015290565b60405161015f9190610f58565b60405180910390f35b61018f7f000000000000000000000000000000000000000000000000000000000000000081565b6040516001600160a01b03909116815260200161015f565b6101ba6101b536600461101f565b610224565b60405190815260200161015f565b6101db6101d636600461101f565b610240565b60405161015f91906110ca565b6101ba7fec61da14b5abbac5c5fda6f1d57642a264ebd5d0674f35852829746dfb8174a581565b61022261021d36600461110c565b61057d565b005b6000806102338385018561117f565b925050505b949350505050565b6060336001600160a01b037f0000000000000000000000000000000000000000000000000000000000000000161461028b576040516313bd2e8360e31b815260040160405180910390fd5b6000610299838501856111d6565b905061271061ffff168160a0015161ffff1611806102bf575080516001600160a01b0316155b806102d5575060808101516001600160a01b0316155b156102f3576040516348be0eb360e01b815260040160405180910390fd5b8051604080830151905163d32cca4760e01b815260048101919091526000916001600160a01b03169063d32cca4790602401602060405180830381865afa158015610342573d6000803e3d6000fd5b505050506040513d601f19601f820116820180604052508101906103669190611286565b905080600114610389576040516348be0eb360e01b815260040160405180910390fd5b60405180610100016040528083600001516001600160a01b03168152602001836020015181526020018360400151815260200183606001516001600160a01b0316815260200160006001600160601b0316815260200183608001516001600160a01b031681526020018360a0015161ffff1681526020018360c001511515815250600080898152602001908152602001600020600088815260200190815260200160002060008201518160000160006101000a8154816001600160a01b0302191690836001600160a01b03160217905550602082015181600101556040820151816002015560608201518160030160006101000a8154816001600160a01b0302191690836001600160a01b0316021790555060808201518160030160146101000a8154816001600160601b0302191690836001600160601b0316021790555060a08201518160040160006101000a8154816001600160a01b0302191690836001600160a01b0316021790555060c08201518160040160146101000a81548161ffff021916908361ffff16021790555060e08201518160040160166101000a81548160ff02191690831515021790555090505084848080601f016020809104026020016040519081016040528093929190818152602001838380828437600092019190915250929a9950505050505050505050565b336001600160a01b037f000000000000000000000000000000000000000000000000000000000000000016146105c6576040516313bd2e8360e31b815260040160405180910390fd5b6105d4868686868686610651565b60006105e285858585610224565b6000868152602081815260408083208884529091529020600301549091506001600160a01b03166106148484836106e9565b85881461062e5761062b8189898989878a8a610742565b91505b61063a87878785610851565b6106478188888886610950565b5050505050505050565b600084815260208181526040808320868452909152902060040154600160b01b900460ff1615610685576106858486610997565b600084815260208181526040808320868452909152902060030180546014906106bd90600160a01b90046001600160601b03166112b5565b91906101000a8154816001600160601b0302191690836001600160601b03160217905550505050505050565b6000806106f88486018661117f565b91509150806000148061071d5750826001600160a01b0316826001600160a01b031614155b1561073b576040516346308bd560e01b815260040160405180910390fd5b5050505050565b600085815260208181526040808320878452909152812060040154600160a01b900461ffff16801561084357600061271061077d83886112dc565b61078791906112fb565b9050801561084157610799818761131d565b6040516331a9108f60e11b8152600481018c90529096506000906001600160a01b037f00000000000000000000000000000000000000000000000000000000000000001690636352211e90602401602060405180830381865afa158015610804573d6000803e3d6000fd5b505050506040513d601f19601f820116820180604052508101906108289190611334565b905061083f6001600160a01b038d168b8385610c99565b505b505b509298975050505050505050565b600083815260208181526040808320858452825280832060038101546004820154600183015460029093015484516001600160a01b039384169681019690965293850187905281166060850152608084019190915260a0830191909152861660c08201526108d09060e001604051602081830303815290604052610cf3565b60008581526020818152604080832087845290915290819020549051630f54a96d60e31b81529192506001600160a01b031690637aa54b6890610917908490600401611351565b600060405180830381600087803b15801561093157600080fd5b505af1158015610945573d6000803e3d6000fd5b505050505050505050565b6000838152602081815260408083208584529091529020600401546001600160a01b0316811561098f5761098f6001600160a01b038716868385610c99565b505050505050565b604051633648f48360e21b8152600481018390526000907f00000000000000000000000000000000000000000000000000000000000000006001600160a01b03169063d923d20c90602401602060405180830381865afa1580156109ff573d6000803e3d6000fd5b505050506040513d601f19601f82011682018060405250810190610a239190611334565b905060006001600160a01b03821615610ab5576040516311470f4360e21b8152600481018590526001600160a01b0384811660248301526000604483015283169063451c3d0c90606401602060405180830381865afa158015610a8a573d6000803e3d6000fd5b505050506040513d601f19601f82011682018060405250810190610aae91906113b3565b9050610bc7565b60405163a9ec656360e01b8152600481018590526000907f00000000000000000000000000000000000000000000000000000000000000006001600160a01b03169063a9ec656390602401602060405180830381865afa158015610b1d573d6000803e3d6000fd5b505050506040513d601f19601f82011682018060405250810190610b419190611334565b90506001600160a01b03811615801590610bc357506040516370a0823160e01b81526001600160a01b0385811660048301528216906370a0823190602401602060405180830381865afa158015610b9c573d6000803e3d6000fd5b505050506040513d601f19601f82011682018060405250810190610bc09190611286565b15155b9150505b80158015610c755750826001600160a01b03167f00000000000000000000000000000000000000000000000000000000000000006001600160a01b0316636352211e866040518263ffffffff1660e01b8152600401610c2891815260200190565b602060405180830381865afa158015610c45573d6000803e3d6000fd5b505050506040513d601f19601f82011682018060405250810190610c699190611334565b6001600160a01b031614155b15610c9357604051636992d36b60e11b815260040160405180910390fd5b50505050565b604080516001600160a01b0385811660248301528416604482015260648082018490528251808303909101815260849091019091526020810180516001600160e01b03166323b872dd60e01b179052610c93908590610d4a565b60408051600180825281830190925260609160009190816020015b6060815260200190600190039081610d0e5790505090508281600081518110610d3957610d396113d0565b602090810291909101015292915050565b6000610d9f826040518060400160405280602081526020017f5361666545524332303a206c6f772d6c6576656c2063616c6c206661696c6564815250856001600160a01b0316610e269092919063ffffffff16565b805190915015610e215780806020019051810190610dbd91906113b3565b610e215760405162461bcd60e51b815260206004820152602a60248201527f5361666545524332303a204552433230206f7065726174696f6e20646964206e6044820152691bdd081cdd58d8d9595960b21b60648201526084015b60405180910390fd5b505050565b6060610238848460008585600080866001600160a01b03168587604051610e4d91906113e6565b60006040518083038185875af1925050503d8060008114610e8a576040519150601f19603f3d011682016040523d82523d6000602084013e610e8f565b606091505b50915091506102338783838760608315610f07578251610f00576001600160a01b0385163b610f005760405162461bcd60e51b815260206004820152601d60248201527f416464726573733a2063616c6c20746f206e6f6e2d636f6e74726163740000006044820152606401610e18565b5081610238565b6102388383815115610f1c5781518083602001fd5b8060405162461bcd60e51b8152600401610e1891906110ca565b60008060408385031215610f4957600080fd5b50508035926020909101359150565b60006101008201905060018060a01b0380845116835260208401516020840152604084015160408401528060608501511660608401526001600160601b0360808501511660808401528060a08501511660a08401525061ffff60c08401511660c083015260e0830151610fcf60e084018215159052565b5092915050565b60008083601f840112610fe857600080fd5b50813567ffffffffffffffff81111561100057600080fd5b60208301915083602082850101111561101857600080fd5b9250929050565b6000806000806060858703121561103557600080fd5b8435935060208501359250604085013567ffffffffffffffff81111561105a57600080fd5b61106687828801610fd6565b95989497509550505050565b60005b8381101561108d578181015183820152602001611075565b83811115610c935750506000910152565b600081518084526110b6816020860160208601611072565b601f01601f19169290920160200192915050565b6020815260006110dd602083018461109e565b9392505050565b6001600160a01b03811681146110f957600080fd5b50565b8035611107816110e4565b919050565b60008060008060008060a0878903121561112557600080fd5b863595506020870135611137816110e4565b94506040870135935060608701359250608087013567ffffffffffffffff81111561116157600080fd5b61116d89828a01610fd6565b979a9699509497509295939492505050565b6000806040838503121561119257600080fd5b823561119d816110e4565b946020939093013593505050565b803561ffff8116811461110757600080fd5b80151581146110f957600080fd5b8035611107816111bd565b600060e082840312156111e857600080fd5b60405160e0810181811067ffffffffffffffff8211171561121957634e487b7160e01b600052604160045260246000fd5b604052611225836110fc565b81526020830135602082015260408301356040820152611247606084016110fc565b6060820152611258608084016110fc565b608082015261126960a084016111ab565b60a082015261127a60c084016111cb565b60c08201529392505050565b60006020828403121561129857600080fd5b5051919050565b634e487b7160e01b600052601160045260246000fd5b60006001600160601b03808316818114156112d2576112d261129f565b6001019392505050565b60008160001904831182151516156112f6576112f661129f565b500290565b60008261131857634e487b7160e01b600052601260045260246000fd5b500490565b60008282101561132f5761132f61129f565b500390565b60006020828403121561134657600080fd5b81516110dd816110e4565b6000602080830181845280855180835260408601915060408160051b870101925083870160005b828110156113a657603f1988860301845261139485835161109e565b94509285019290850190600101611378565b5092979650505050505050565b6000602082840312156113c557600080fd5b81516110dd816111bd565b634e487b7160e01b600052603260045260246000fd5b600082516113f8818460208701611072565b919091019291505056fea2646970667358221220a00dfdabb081aef972d8b7a825c5e96bed98f0a0660dbe662f2f9d4684d6a44b64736f6c634300080a0033",
    "sourcePath": "/workspace/grants-collect-module/src/GitcoinCollectModule.sol",
    "compiler": {
        "name": "solc",
        "version": "0.8.10+commit.fc410830"
    },
    "functionHashes": {
        "HUB()": "a4c52b86",
        "ROUND_OPERATOR_ROLE()": "d97f3dcf",
        "calculateFee(uint256,uint256,bytes)": "bbce3594",
        "getPublicationData(uint256,uint256)": "3f503892",
        "initializePublicationCollectModule(uint256,uint256,bytes)": "c233f951",
        "processCollect(uint256,address,uint256,uint256,bytes)": "e49c3dda"
    },
    "gasEstimates": {
        "creation": {
            "codeDepositCost": "1035200",
            "executionCost": "infinite",
            "totalCost": "infinite"
        },
        "external": {
            "HUB()": "infinite",
            "ROUND_OPERATOR_ROLE()": "261",
            "calculateFee(uint256,uint256,bytes)": "767",
            "getPublicationData(uint256,uint256)": "11746",
            "initializePublicationCollectModule(uint256,uint256,bytes)": "infinite",
            "processCollect(uint256,address,uint256,uint256,bytes)": "infinite"
        },
        "internal": {
            "_toBytesArray(bytes memory)": "infinite",
            "_transferToRecipients(address,address,uint256,uint256,uint256)": "infinite",
            "_transferToReferrals(address,uint256,address,uint256,uint256,uint256,bytes calldata)": "infinite",
            "_validateAndStoreCollect(uint256,address,uint256,uint256,bytes calldata)": "infinite",
            "_validateDataIsExpected(bytes calldata,address)": "infinite",
            "_vote(address,uint256,uint256,uint256)": "infinite"
        }
    }
}